{
  "contractName": "ProofOfExistence3",
  "abi": [
    {
      "constant": true,
      "inputs": [
        {
          "internalType": "bytes32",
          "name": "",
          "type": "bytes32"
        }
      ],
      "name": "proofs",
      "outputs": [
        {
          "internalType": "bool",
          "name": "",
          "type": "bool"
        }
      ],
      "payable": false,
      "stateMutability": "view",
      "type": "function"
    },
    {
      "constant": false,
      "inputs": [
        {
          "internalType": "string",
          "name": "document",
          "type": "string"
        }
      ],
      "name": "notarize",
      "outputs": [],
      "payable": false,
      "stateMutability": "nonpayable",
      "type": "function"
    },
    {
      "constant": true,
      "inputs": [
        {
          "internalType": "string",
          "name": "document",
          "type": "string"
        }
      ],
      "name": "proofFor",
      "outputs": [
        {
          "internalType": "bytes32",
          "name": "",
          "type": "bytes32"
        }
      ],
      "payable": false,
      "stateMutability": "pure",
      "type": "function"
    },
    {
      "constant": true,
      "inputs": [
        {
          "internalType": "string",
          "name": "document",
          "type": "string"
        }
      ],
      "name": "checkDocument",
      "outputs": [
        {
          "internalType": "bool",
          "name": "",
          "type": "bool"
        }
      ],
      "payable": false,
      "stateMutability": "view",
      "type": "function"
    }
  ],
  "bytecode": "0x608060405234801561001057600080fd5b506103ed806100206000396000f3fe608060405234801561001057600080fd5b506004361061004c5760003560e01c8063444d95b01461005157806353fb9233146100975780637183616c1461016a578063f6c1acdf146101e3575b600080fd5b61007d6004803603602081101561006757600080fd5b81019080803590602001909291905050506102b2565b604051808215151515815260200191505060405180910390f35b610150600480360360208110156100ad57600080fd5b81019080803590602001906401000000008111156100ca57600080fd5b8201836020820111156100dc57600080fd5b803590602001918460018302840111640100000000831117156100fe57600080fd5b91908080601f016020809104026020016040519081016040528093929190818152602001838380828437600081840152601f19601f8201169050808301925050505050505091929192905050506102d2565b604051808215151515815260200191505060405180910390f35b6101e16004803603602081101561018057600080fd5b810190808035906020019064010000000081111561019d57600080fd5b8201836020820111156101af57600080fd5b803590602001918460018302840111640100000000831117156101d157600080fd5b90919293919293905050506102f1565b005b61029c600480360360208110156101f957600080fd5b810190808035906020019064010000000081111561021657600080fd5b82018360208201111561022857600080fd5b8035906020019184600183028401116401000000008311171561024a57600080fd5b91908080601f016020809104026020016040519081016040528093929190818152602001838380828437600081840152601f19601f820116905080830192505050505050509192919290505050610350565b6040518082815260200191505060405180910390f35b60006020528060005260406000206000915054906101000a900460ff1681565b6000806102de83610350565b90506102e981610361565b915050919050565b600061034083838080601f016020809104026020016040519081016040528093929190818152602001838380828437600081840152601f19601f82011690508083019250505050505050610350565b905061034b8161038a565b505050565b600081805190602001209050919050565b600080600083815260200190815260200160002060009054906101000a900460ff169050919050565b600160008083815260200190815260200160002060006101000a81548160ff0219169083151502179055505056fea265627a7a72315820c506521e6c6f015e560cffbc526edd870722c032a67200d9e177bad037018c8b64736f6c634300050c0032",
  "source": "pragma solidity >=0.4.22 <0.8.0;\n\ncontract ProofOfExistence3 {\n\n  mapping (bytes32 => bool) public proofs;\n  \n  // store a proof of existence in the contract state\n  function storeProof(bytes32 proof) \n    internal \n  {\n    proofs[proof] = true;\n  }\n  \n  // calculate and store the proof for a document\n  function notarize(string calldata document) \n    external \n  { \n    bytes32 proof = proofFor(document);\n    storeProof(proof);\n  }\n  \n  // helper function to get a document's sha256\n  function proofFor(string memory document) \n    pure \n    public \n    returns (bytes32) \n  {\n    return keccak256(bytes(document));\n  }\n  \n  // check if a document has been notarized\n  function checkDocument(string memory document) \n    public \n    view \n    returns (bool) \n  {\n    bytes32 proof = proofFor(document);\n    return hasProof(proof);\n  }\n\n  // returns true if proof is stored\n  function hasProof(bytes32 proof) \n    internal \n    view \n    returns(bool) \n  {\n    return proofs[proof];\n  }\n}\n",
  "sourcePath": "/home/eshghi/haniye/solidity-projects/proof-of-existence/contracts/ProofOfExistence3.sol",
  "compiler": {
    "name": "solc",
    "version": "0.5.12+commit.7709ece9.Emscripten.clang"
  },
  "schemaVersion": "3.0.19",
  "updatedAt": "2020-10-15T11:57:25.842Z",
  "networkType": "ethereum",
  "devdoc": {
    "methods": {}
  },
  "userdoc": {
    "methods": {}
  }
}